{
  "_format": "hh-sol-artifact-1",
  "contractName": "ERC721AMock",
  "sourceName": "contracts/ERC721A/ERC721AMock.sol",
  "abi": [
    {
      "inputs": [
        {
          "internalType": "string",
          "name": "name_",
          "type": "string"
        },
        {
          "internalType": "string",
          "name": "symbol_",
          "type": "string"
        }
      ],
      "stateMutability": "nonpayable",
      "type": "constructor"
    },
    {
      "inputs": [],
      "name": "ApprovalCallerNotOwnerNorApproved",
      "type": "error"
    },
    {
      "inputs": [],
      "name": "ApprovalQueryForNonexistentToken",
      "type": "error"
    },
    {
      "inputs": [],
      "name": "ApprovalToCurrentOwner",
      "type": "error"
    },
    {
      "inputs": [],
      "name": "ApproveToCaller",
      "type": "error"
    },
    {
      "inputs": [],
      "name": "AuxQueryForZeroAddress",
      "type": "error"
    },
    {
      "inputs": [],
      "name": "BalanceQueryForZeroAddress",
      "type": "error"
    },
    {
      "inputs": [],
      "name": "MintToZeroAddress",
      "type": "error"
    },
    {
      "inputs": [],
      "name": "MintZeroQuantity",
      "type": "error"
    },
    {
      "inputs": [],
      "name": "MintedQueryForZeroAddress",
      "type": "error"
    },
    {
      "inputs": [],
      "name": "OwnerQueryForNonexistentToken",
      "type": "error"
    },
    {
      "inputs": [],
      "name": "TransferCallerNotOwnerNorApproved",
      "type": "error"
    },
    {
      "inputs": [],
      "name": "TransferFromIncorrectOwner",
      "type": "error"
    },
    {
      "inputs": [],
      "name": "TransferToNonERC721ReceiverImplementer",
      "type": "error"
    },
    {
      "inputs": [],
      "name": "TransferToZeroAddress",
      "type": "error"
    },
    {
      "inputs": [],
      "name": "URIQueryForNonexistentToken",
      "type": "error"
    },
    {
      "anonymous": false,
      "inputs": [
        {
          "indexed": true,
          "internalType": "address",
          "name": "owner",
          "type": "address"
        },
        {
          "indexed": true,
          "internalType": "address",
          "name": "approved",
          "type": "address"
        },
        {
          "indexed": true,
          "internalType": "uint256",
          "name": "tokenId",
          "type": "uint256"
        }
      ],
      "name": "Approval",
      "type": "event"
    },
    {
      "anonymous": false,
      "inputs": [
        {
          "indexed": true,
          "internalType": "address",
          "name": "owner",
          "type": "address"
        },
        {
          "indexed": true,
          "internalType": "address",
          "name": "operator",
          "type": "address"
        },
        {
          "indexed": false,
          "internalType": "bool",
          "name": "approved",
          "type": "bool"
        }
      ],
      "name": "ApprovalForAll",
      "type": "event"
    },
    {
      "anonymous": false,
      "inputs": [
        {
          "indexed": true,
          "internalType": "address",
          "name": "from",
          "type": "address"
        },
        {
          "indexed": true,
          "internalType": "address",
          "name": "to",
          "type": "address"
        },
        {
          "indexed": true,
          "internalType": "uint256",
          "name": "tokenId",
          "type": "uint256"
        }
      ],
      "name": "Transfer",
      "type": "event"
    },
    {
      "inputs": [
        {
          "internalType": "address",
          "name": "to",
          "type": "address"
        },
        {
          "internalType": "uint256",
          "name": "tokenId",
          "type": "uint256"
        }
      ],
      "name": "approve",
      "outputs": [],
      "stateMutability": "nonpayable",
      "type": "function"
    },
    {
      "inputs": [
        {
          "internalType": "address",
          "name": "owner",
          "type": "address"
        }
      ],
      "name": "balanceOf",
      "outputs": [
        {
          "internalType": "uint256",
          "name": "",
          "type": "uint256"
        }
      ],
      "stateMutability": "view",
      "type": "function"
    },
    {
      "inputs": [],
      "name": "baseURI",
      "outputs": [
        {
          "internalType": "string",
          "name": "",
          "type": "string"
        }
      ],
      "stateMutability": "view",
      "type": "function"
    },
    {
      "inputs": [
        {
          "internalType": "uint256",
          "name": "tokenId",
          "type": "uint256"
        }
      ],
      "name": "exists",
      "outputs": [
        {
          "internalType": "bool",
          "name": "",
          "type": "bool"
        }
      ],
      "stateMutability": "view",
      "type": "function"
    },
    {
      "inputs": [
        {
          "internalType": "uint256",
          "name": "tokenId",
          "type": "uint256"
        }
      ],
      "name": "getApproved",
      "outputs": [
        {
          "internalType": "address",
          "name": "",
          "type": "address"
        }
      ],
      "stateMutability": "view",
      "type": "function"
    },
    {
      "inputs": [
        {
          "internalType": "address",
          "name": "owner",
          "type": "address"
        }
      ],
      "name": "getAux",
      "outputs": [
        {
          "internalType": "uint64",
          "name": "",
          "type": "uint64"
        }
      ],
      "stateMutability": "view",
      "type": "function"
    },
    {
      "inputs": [
        {
          "internalType": "address",
          "name": "owner",
          "type": "address"
        },
        {
          "internalType": "address",
          "name": "operator",
          "type": "address"
        }
      ],
      "name": "isApprovedForAll",
      "outputs": [
        {
          "internalType": "bool",
          "name": "",
          "type": "bool"
        }
      ],
      "stateMutability": "view",
      "type": "function"
    },
    {
      "inputs": [
        {
          "internalType": "address",
          "name": "to",
          "type": "address"
        },
        {
          "internalType": "uint256",
          "name": "quantity",
          "type": "uint256"
        },
        {
          "internalType": "string",
          "name": "_data",
          "type": "string"
        },
        {
          "internalType": "bool",
          "name": "safe",
          "type": "bool"
        }
      ],
      "name": "mint",
      "outputs": [],
      "stateMutability": "nonpayable",
      "type": "function"
    },
    {
      "inputs": [],
      "name": "name",
      "outputs": [
        {
          "internalType": "string",
          "name": "",
          "type": "string"
        }
      ],
      "stateMutability": "view",
      "type": "function"
    },
    {
      "inputs": [
        {
          "internalType": "address",
          "name": "owner",
          "type": "address"
        }
      ],
      "name": "numberMinted",
      "outputs": [
        {
          "internalType": "uint256",
          "name": "",
          "type": "uint256"
        }
      ],
      "stateMutability": "view",
      "type": "function"
    },
    {
      "inputs": [
        {
          "internalType": "uint256",
          "name": "tokenId",
          "type": "uint256"
        }
      ],
      "name": "ownerOf",
      "outputs": [
        {
          "internalType": "address",
          "name": "",
          "type": "address"
        }
      ],
      "stateMutability": "view",
      "type": "function"
    },
    {
      "inputs": [
        {
          "internalType": "address",
          "name": "to",
          "type": "address"
        },
        {
          "internalType": "uint256",
          "name": "quantity",
          "type": "uint256"
        },
        {
          "internalType": "string",
          "name": "_data",
          "type": "string"
        }
      ],
      "name": "safeMint",
      "outputs": [],
      "stateMutability": "nonpayable",
      "type": "function"
    },
    {
      "inputs": [
        {
          "internalType": "address",
          "name": "from",
          "type": "address"
        },
        {
          "internalType": "address",
          "name": "to",
          "type": "address"
        },
        {
          "internalType": "uint256",
          "name": "tokenId",
          "type": "uint256"
        }
      ],
      "name": "safeTransferFrom",
      "outputs": [],
      "stateMutability": "nonpayable",
      "type": "function"
    },
    {
      "inputs": [
        {
          "internalType": "address",
          "name": "from",
          "type": "address"
        },
        {
          "internalType": "address",
          "name": "to",
          "type": "address"
        },
        {
          "internalType": "uint256",
          "name": "tokenId",
          "type": "uint256"
        },
        {
          "internalType": "bytes",
          "name": "_data",
          "type": "bytes"
        }
      ],
      "name": "safeTransferFrom",
      "outputs": [],
      "stateMutability": "nonpayable",
      "type": "function"
    },
    {
      "inputs": [
        {
          "internalType": "address",
          "name": "operator",
          "type": "address"
        },
        {
          "internalType": "bool",
          "name": "approved",
          "type": "bool"
        }
      ],
      "name": "setApprovalForAll",
      "outputs": [],
      "stateMutability": "nonpayable",
      "type": "function"
    },
    {
      "inputs": [
        {
          "internalType": "address",
          "name": "owner",
          "type": "address"
        },
        {
          "internalType": "uint64",
          "name": "aux",
          "type": "uint64"
        }
      ],
      "name": "setAux",
      "outputs": [],
      "stateMutability": "nonpayable",
      "type": "function"
    },
    {
      "inputs": [
        {
          "internalType": "bytes4",
          "name": "interfaceId",
          "type": "bytes4"
        }
      ],
      "name": "supportsInterface",
      "outputs": [
        {
          "internalType": "bool",
          "name": "",
          "type": "bool"
        }
      ],
      "stateMutability": "view",
      "type": "function"
    },
    {
      "inputs": [],
      "name": "symbol",
      "outputs": [
        {
          "internalType": "string",
          "name": "",
          "type": "string"
        }
      ],
      "stateMutability": "view",
      "type": "function"
    },
    {
      "inputs": [
        {
          "internalType": "uint256",
          "name": "tokenId",
          "type": "uint256"
        }
      ],
      "name": "tokenURI",
      "outputs": [
        {
          "internalType": "string",
          "name": "",
          "type": "string"
        }
      ],
      "stateMutability": "view",
      "type": "function"
    },
    {
      "inputs": [],
      "name": "totalMinted",
      "outputs": [
        {
          "internalType": "uint256",
          "name": "",
          "type": "uint256"
        }
      ],
      "stateMutability": "view",
      "type": "function"
    },
    {
      "inputs": [],
      "name": "totalSupply",
      "outputs": [
        {
          "internalType": "uint256",
          "name": "",
          "type": "uint256"
        }
      ],
      "stateMutability": "view",
      "type": "function"
    },
    {
      "inputs": [
        {
          "internalType": "address",
          "name": "from",
          "type": "address"
        },
        {
          "internalType": "address",
          "name": "to",
          "type": "address"
        },
        {
          "internalType": "uint256",
          "name": "tokenId",
          "type": "uint256"
        }
      ],
      "name": "transferFrom",
      "outputs": [],
      "stateMutability": "nonpayable",
      "type": "function"
    }
  ],
  "bytecode": "0x60806040523480156200001157600080fd5b5060405162002beb38038062002beb8339818101604052810190620000379190620001b2565b818181600290805190602001906200005192919062000090565b5080600390805190602001906200006a92919062000090565b506200007b6200008b60201b60201c565b6000819055505050505062000395565b600090565b8280546200009e90620002ba565b90600052602060002090601f016020900481019282620000c257600085556200010e565b82601f10620000dd57805160ff19168380011785556200010e565b828001600101855582156200010e579182015b828111156200010d578251825591602001919060010190620000f0565b5b5090506200011d919062000121565b5090565b5b808211156200013c57600081600090555060010162000122565b5090565b60006200015762000151846200024e565b62000225565b9050828152602081018484840111156200017057600080fd5b6200017d84828562000284565b509392505050565b600082601f8301126200019757600080fd5b8151620001a984826020860162000140565b91505092915050565b60008060408385031215620001c657600080fd5b600083015167ffffffffffffffff811115620001e157600080fd5b620001ef8582860162000185565b925050602083015167ffffffffffffffff8111156200020d57600080fd5b6200021b8582860162000185565b9150509250929050565b60006200023162000244565b90506200023f8282620002f0565b919050565b6000604051905090565b600067ffffffffffffffff8211156200026c576200026b62000355565b5b620002778262000384565b9050602081019050919050565b60005b83811015620002a457808201518184015260208101905062000287565b83811115620002b4576000848401525b50505050565b60006002820490506001821680620002d357607f821691505b60208210811415620002ea57620002e962000326565b5b50919050565b620002fb8262000384565b810181811067ffffffffffffffff821117156200031d576200031c62000355565b5b80604052505050565b7f4e487b7100000000000000000000000000000000000000000000000000000000600052602260045260246000fd5b7f4e487b7100000000000000000000000000000000000000000000000000000000600052604160045260246000fd5b6000601f19601f8301169050919050565b61284680620003a56000396000f3fe608060405234801561001057600080fd5b50600436106101425760003560e01c80636c0360eb116100b8578063b88d4fde1161007c578063b88d4fde14610375578063bf0b175e14610391578063c87b56dd146103c1578063cd279c7c146103f1578063dc33e6811461040d578063e985e9c51461043d57610142565b80636c0360eb146102cf57806370a08231146102ed57806395d89b411461031d578063a22cb4651461033b578063a2309ff81461035757610142565b806318160ddd1161010a57806318160ddd146101fd57806323b872dd1461021b57806342842e0e14610237578063453ab141146102535780634f558e791461026f5780636352211e1461029f57610142565b806301ffc9a71461014757806306fdde0314610177578063081812fc14610195578063095ea7b3146101c55780630da209c3146101e1575b600080fd5b610161600480360381019061015c919061233f565b61046d565b60405161016e91906124cf565b60405180910390f35b61017f61054f565b60405161018c91906124ea565b60405180910390f35b6101af60048036038101906101aa9190612391565b6105e1565b6040516101bc9190612468565b60405180910390f35b6101df60048036038101906101da91906121e5565b61065d565b005b6101fb60048036038101906101f69190612288565b610768565b005b61020561077a565b604051610212919061250c565b60405180910390f35b610235600480360381019061023091906120df565b610791565b005b610251600480360381019061024c91906120df565b6107a1565b005b61026d60048036038101906102689190612303565b6107c1565b005b61028960048036038101906102849190612391565b6107cf565b60405161029691906124cf565b60405180910390f35b6102b960048036038101906102b49190612391565b6107e1565b6040516102c69190612468565b60405180910390f35b6102d76107f7565b6040516102e491906124ea565b60405180910390f35b6103076004803603810190610302919061207a565b610806565b604051610314919061250c565b60405180910390f35b6103256108d6565b60405161033291906124ea565b60405180910390f35b610355600480360381019061035091906121a9565b610968565b005b61035f610ae0565b60405161036c919061250c565b60405180910390f35b61038f600480360381019061038a919061212e565b610aef565b005b6103ab60048036038101906103a6919061207a565b610b6b565b6040516103b89190612527565b60405180910390f35b6103db60048036038101906103d69190612391565b610b7d565b6040516103e891906124ea565b60405180910390f35b61040b60048036038101906104069190612221565b610c6e565b005b6104276004803603810190610422919061207a565b610c7e565b604051610434919061250c565b60405180910390f35b610457600480360381019061045291906120a3565b610c90565b60405161046491906124cf565b60405180910390f35b60007f80ac58cd000000000000000000000000000000000000000000000000000000007bffffffffffffffffffffffffffffffffffffffffffffffffffffffff1916827bffffffffffffffffffffffffffffffffffffffffffffffffffffffff1916148061053857507f5b5e139f000000000000000000000000000000000000000000000000000000007bffffffffffffffffffffffffffffffffffffffffffffffffffffffff1916827bffffffffffffffffffffffffffffffffffffffffffffffffffffffff1916145b80610548575061054782610d24565b5b9050919050565b60606002805461055e906126cb565b80601f016020809104026020016040519081016040528092919081815260200182805461058a906126cb565b80156105d75780601f106105ac576101008083540402835291602001916105d7565b820191906000526020600020905b8154815290600101906020018083116105ba57829003601f168201915b5050505050905090565b60006105ec82610d8e565b610622576040517fcf4700e400000000000000000000000000000000000000000000000000000000815260040160405180910390fd5b6007600083815260200190815260200160002060009054906101000a900473ffffffffffffffffffffffffffffffffffffffff169050919050565b6000610668826107e1565b90508073ffffffffffffffffffffffffffffffffffffffff168373ffffffffffffffffffffffffffffffffffffffff1614156106d0576040517f943f7b8c00000000000000000000000000000000000000000000000000000000815260040160405180910390fd5b8073ffffffffffffffffffffffffffffffffffffffff166106ef610ddc565b73ffffffffffffffffffffffffffffffffffffffff1614158015610721575061071f8161071a610ddc565b610c90565b155b15610758576040517fcfb3b94200000000000000000000000000000000000000000000000000000000815260040160405180910390fd5b610763838383610de4565b505050565b61077484848484610e96565b50505050565b600061078461128c565b6001546000540303905090565b61079c838383611291565b505050565b6107bc83838360405180602001604052806000815250610aef565b505050565b6107cb8282611782565b5050565b60006107da82610d8e565b9050919050565b60006107ec82611856565b600001519050919050565b6060610801611ae5565b905090565b60008073ffffffffffffffffffffffffffffffffffffffff168273ffffffffffffffffffffffffffffffffffffffff16141561086e576040517f8f4eb60400000000000000000000000000000000000000000000000000000000815260040160405180910390fd5b600660008373ffffffffffffffffffffffffffffffffffffffff1673ffffffffffffffffffffffffffffffffffffffff16815260200190815260200160002060000160009054906101000a900467ffffffffffffffff1667ffffffffffffffff169050919050565b6060600380546108e5906126cb565b80601f0160208091040260200160405190810160405280929190818152602001828054610911906126cb565b801561095e5780601f106109335761010080835404028352916020019161095e565b820191906000526020600020905b81548152906001019060200180831161094157829003601f168201915b5050505050905090565b610970610ddc565b73ffffffffffffffffffffffffffffffffffffffff168273ffffffffffffffffffffffffffffffffffffffff1614156109d5576040517fb06307db00000000000000000000000000000000000000000000000000000000815260040160405180910390fd5b80600860006109e2610ddc565b73ffffffffffffffffffffffffffffffffffffffff1673ffffffffffffffffffffffffffffffffffffffff16815260200190815260200160002060008473ffffffffffffffffffffffffffffffffffffffff1673ffffffffffffffffffffffffffffffffffffffff16815260200190815260200160002060006101000a81548160ff0219169083151502179055508173ffffffffffffffffffffffffffffffffffffffff16610a8f610ddc565b73ffffffffffffffffffffffffffffffffffffffff167f17307eab39ab6107e8899845ad3d59bd9653f200f220920489ca2b5937696c3183604051610ad491906124cf565b60405180910390a35050565b6000610aea611afc565b905090565b610afa848484611291565b610b198373ffffffffffffffffffffffffffffffffffffffff16611b0f565b8015610b2e5750610b2c84848484611b32565b155b15610b65576040517fd1a57ed600000000000000000000000000000000000000000000000000000000815260040160405180910390fd5b50505050565b6000610b7682611c92565b9050919050565b6060610b8882610d8e565b610bbe576040517fa14c4b5000000000000000000000000000000000000000000000000000000000815260040160405180910390fd5b6000610bc8611ae5565b9050600460008481526020019081526020016000208054610be8906126cb565b80601f0160208091040260200160405190810160405280929190818152602001828054610c14906126cb565b8015610c615780601f10610c3657610100808354040283529160200191610c61565b820191906000526020600020905b815481529060010190602001808311610c4457829003601f168201915b5050505050915050919050565b610c79838383611d58565b505050565b6000610c8982611d6a565b9050919050565b6000600860008473ffffffffffffffffffffffffffffffffffffffff1673ffffffffffffffffffffffffffffffffffffffff16815260200190815260200160002060008373ffffffffffffffffffffffffffffffffffffffff1673ffffffffffffffffffffffffffffffffffffffff16815260200190815260200160002060009054906101000a900460ff16905092915050565b60007f01ffc9a7000000000000000000000000000000000000000000000000000000007bffffffffffffffffffffffffffffffffffffffffffffffffffffffff1916827bffffffffffffffffffffffffffffffffffffffffffffffffffffffff1916149050919050565b600081610d9961128c565b11158015610da8575060005482105b8015610dd5575060056000838152602001908152602001600020600001601c9054906101000a900460ff16155b9050919050565b600033905090565b826007600084815260200190815260200160002060006101000a81548173ffffffffffffffffffffffffffffffffffffffff021916908373ffffffffffffffffffffffffffffffffffffffff160217905550818373ffffffffffffffffffffffffffffffffffffffff168273ffffffffffffffffffffffffffffffffffffffff167f8c5be1e5ebec7d5bd14f71427d1e84f3dd0314c0f7b2291e5b200ac8c7c3b92560405160405180910390a4505050565b600080549050600073ffffffffffffffffffffffffffffffffffffffff168573ffffffffffffffffffffffffffffffffffffffff161415610f03576040517f2e07630000000000000000000000000000000000000000000000000000000000815260040160405180910390fd5b6000841415610f3e576040517fb562e8dd00000000000000000000000000000000000000000000000000000000815260040160405180910390fd5b610f4b6000868387611e3a565b83600660008773ffffffffffffffffffffffffffffffffffffffff1673ffffffffffffffffffffffffffffffffffffffff16815260200190815260200160002060000160008282829054906101000a900467ffffffffffffffff160192506101000a81548167ffffffffffffffff021916908367ffffffffffffffff16021790555083600660008773ffffffffffffffffffffffffffffffffffffffff1673ffffffffffffffffffffffffffffffffffffffff16815260200190815260200160002060000160088282829054906101000a900467ffffffffffffffff160192506101000a81548167ffffffffffffffff021916908367ffffffffffffffff16021790555082600460008381526020019081526020016000209080519060200190611076929190611e46565b50846005600083815260200190815260200160002060000160006101000a81548173ffffffffffffffffffffffffffffffffffffffff021916908373ffffffffffffffffffffffffffffffffffffffff160217905550426005600083815260200190815260200160002060000160146101000a81548167ffffffffffffffff021916908367ffffffffffffffff16021790555060008190506000858201905083801561113d575061113c8773ffffffffffffffffffffffffffffffffffffffff16611b0f565b5b15611203575b818773ffffffffffffffffffffffffffffffffffffffff16600073ffffffffffffffffffffffffffffffffffffffff167fddf252ad1be2c89b69c2b068fc378daa952ba7f163c4a11628f55a4df523b3ef60405160405180910390a46111b26000888480600101955088611b32565b6111e8576040517fd1a57ed600000000000000000000000000000000000000000000000000000000815260040160405180910390fd5b808214156111435782600054146111fe57600080fd5b61126f565b5b818060010192508773ffffffffffffffffffffffffffffffffffffffff16600073ffffffffffffffffffffffffffffffffffffffff167fddf252ad1be2c89b69c2b068fc378daa952ba7f163c4a11628f55a4df523b3ef60405160405180910390a480821415611204575b8160008190555050506112856000868387611e40565b5050505050565b600090565b600061129c82611856565b90506000816000015173ffffffffffffffffffffffffffffffffffffffff166112c3610ddc565b73ffffffffffffffffffffffffffffffffffffffff1614806112f657506112f582600001516112f0610ddc565b610c90565b5b8061133b5750611304610ddc565b73ffffffffffffffffffffffffffffffffffffffff16611323846105e1565b73ffffffffffffffffffffffffffffffffffffffff16145b905080611374576040517f59c896be00000000000000000000000000000000000000000000000000000000815260040160405180910390fd5b8473ffffffffffffffffffffffffffffffffffffffff16826000015173ffffffffffffffffffffffffffffffffffffffff16146113dd576040517fa114810000000000000000000000000000000000000000000000000000000000815260040160405180910390fd5b600073ffffffffffffffffffffffffffffffffffffffff168473ffffffffffffffffffffffffffffffffffffffff161415611444576040517fea553b3400000000000000000000000000000000000000000000000000000000815260040160405180910390fd5b6114518585856001611e3a565b6114616000848460000151610de4565b6001600660008773ffffffffffffffffffffffffffffffffffffffff1673ffffffffffffffffffffffffffffffffffffffff16815260200190815260200160002060000160008282829054906101000a900467ffffffffffffffff160392506101000a81548167ffffffffffffffff021916908367ffffffffffffffff1602179055506001600660008673ffffffffffffffffffffffffffffffffffffffff1673ffffffffffffffffffffffffffffffffffffffff16815260200190815260200160002060000160008282829054906101000a900467ffffffffffffffff160192506101000a81548167ffffffffffffffff021916908367ffffffffffffffff160217905550836005600085815260200190815260200160002060000160006101000a81548173ffffffffffffffffffffffffffffffffffffffff021916908373ffffffffffffffffffffffffffffffffffffffff160217905550426005600085815260200190815260200160002060000160146101000a81548167ffffffffffffffff021916908367ffffffffffffffff1602179055506000600184019050600073ffffffffffffffffffffffffffffffffffffffff166005600083815260200190815260200160002060000160009054906101000a900473ffffffffffffffffffffffffffffffffffffffff1673ffffffffffffffffffffffffffffffffffffffff161415611712576000548110156117115782600001516005600083815260200190815260200160002060000160006101000a81548173ffffffffffffffffffffffffffffffffffffffff021916908373ffffffffffffffffffffffffffffffffffffffff16021790555082602001516005600083815260200190815260200160002060000160146101000a81548167ffffffffffffffff021916908367ffffffffffffffff1602179055505b5b50828473ffffffffffffffffffffffffffffffffffffffff168673ffffffffffffffffffffffffffffffffffffffff167fddf252ad1be2c89b69c2b068fc378daa952ba7f163c4a11628f55a4df523b3ef60405160405180910390a461177b8585856001611e40565b5050505050565b600073ffffffffffffffffffffffffffffffffffffffff168273ffffffffffffffffffffffffffffffffffffffff1614156117e9576040517fac3727ba00000000000000000000000000000000000000000000000000000000815260040160405180910390fd5b80600660008473ffffffffffffffffffffffffffffffffffffffff1673ffffffffffffffffffffffffffffffffffffffff16815260200190815260200160002060000160186101000a81548167ffffffffffffffff021916908367ffffffffffffffff1602179055505050565b61185e611ecc565b60008290508061186c61128c565b1115801561187b575060005481105b15611aae576000600560008381526020019081526020016000206040518060600160405290816000820160009054906101000a900473ffffffffffffffffffffffffffffffffffffffff1673ffffffffffffffffffffffffffffffffffffffff1673ffffffffffffffffffffffffffffffffffffffff1681526020016000820160149054906101000a900467ffffffffffffffff1667ffffffffffffffff1667ffffffffffffffff16815260200160008201601c9054906101000a900460ff16151515158152505090508060400151611aac57600073ffffffffffffffffffffffffffffffffffffffff16816000015173ffffffffffffffffffffffffffffffffffffffff1614611990578092505050611ae0565b5b600115611aab57818060019003925050600560008381526020019081526020016000206040518060600160405290816000820160009054906101000a900473ffffffffffffffffffffffffffffffffffffffff1673ffffffffffffffffffffffffffffffffffffffff1673ffffffffffffffffffffffffffffffffffffffff1681526020016000820160149054906101000a900467ffffffffffffffff1667ffffffffffffffff1667ffffffffffffffff16815260200160008201601c9054906101000a900460ff1615151515815250509050600073ffffffffffffffffffffffffffffffffffffffff16816000015173ffffffffffffffffffffffffffffffffffffffff1614611aa6578092505050611ae0565b611991565b5b505b6040517fdf2d9b4200000000000000000000000000000000000000000000000000000000815260040160405180910390fd5b919050565b606060405180602001604052806000815250905090565b6000611b0661128c565b60005403905090565b6000808273ffffffffffffffffffffffffffffffffffffffff163b119050919050565b60008373ffffffffffffffffffffffffffffffffffffffff1663150b7a02611b58610ddc565b8786866040518563ffffffff1660e01b8152600401611b7a9493929190612483565b602060405180830381600087803b158015611b9457600080fd5b505af1925050508015611bc557506040513d601f19601f82011682018060405250810190611bc29190612368565b60015b611c3f573d8060008114611bf5576040519150601f19603f3d011682016040523d82523d6000602084013e611bfa565b606091505b50600081511415611c37576040517fd1a57ed600000000000000000000000000000000000000000000000000000000815260040160405180910390fd5b805181602001fd5b63150b7a0260e01b7bffffffffffffffffffffffffffffffffffffffffffffffffffffffff1916817bffffffffffffffffffffffffffffffffffffffffffffffffffffffff191614915050949350505050565b60008073ffffffffffffffffffffffffffffffffffffffff168273ffffffffffffffffffffffffffffffffffffffff161415611cfa576040517fac3727ba00000000000000000000000000000000000000000000000000000000815260040160405180910390fd5b600660008373ffffffffffffffffffffffffffffffffffffffff1673ffffffffffffffffffffffffffffffffffffffff16815260200190815260200160002060000160189054906101000a900467ffffffffffffffff169050919050565b611d658383836001610e96565b505050565b60008073ffffffffffffffffffffffffffffffffffffffff168273ffffffffffffffffffffffffffffffffffffffff161415611dd2576040517f35ebb31900000000000000000000000000000000000000000000000000000000815260040160405180910390fd5b600660008373ffffffffffffffffffffffffffffffffffffffff1673ffffffffffffffffffffffffffffffffffffffff16815260200190815260200160002060000160089054906101000a900467ffffffffffffffff1667ffffffffffffffff169050919050565b50505050565b50505050565b828054611e52906126cb565b90600052602060002090601f016020900481019282611e745760008555611ebb565b82601f10611e8d57805160ff1916838001178555611ebb565b82800160010185558215611ebb579182015b82811115611eba578251825591602001919060010190611e9f565b5b509050611ec89190611f0f565b5090565b6040518060600160405280600073ffffffffffffffffffffffffffffffffffffffff168152602001600067ffffffffffffffff1681526020016000151581525090565b5b80821115611f28576000816000905550600101611f10565b5090565b6000611f3f611f3a84612567565b612542565b905082815260208101848484011115611f5757600080fd5b611f62848285612689565b509392505050565b6000611f7d611f7884612598565b612542565b905082815260208101848484011115611f9557600080fd5b611fa0848285612689565b509392505050565b600081359050611fb78161279d565b92915050565b600081359050611fcc816127b4565b92915050565b600081359050611fe1816127cb565b92915050565b600081519050611ff6816127cb565b92915050565b600082601f83011261200d57600080fd5b813561201d848260208601611f2c565b91505092915050565b600082601f83011261203757600080fd5b8135612047848260208601611f6a565b91505092915050565b60008135905061205f816127e2565b92915050565b600081359050612074816127f9565b92915050565b60006020828403121561208c57600080fd5b600061209a84828501611fa8565b91505092915050565b600080604083850312156120b657600080fd5b60006120c485828601611fa8565b92505060206120d585828601611fa8565b9150509250929050565b6000806000606084860312156120f457600080fd5b600061210286828701611fa8565b935050602061211386828701611fa8565b925050604061212486828701612050565b9150509250925092565b6000806000806080858703121561214457600080fd5b600061215287828801611fa8565b945050602061216387828801611fa8565b935050604061217487828801612050565b925050606085013567ffffffffffffffff81111561219157600080fd5b61219d87828801611ffc565b91505092959194509250565b600080604083850312156121bc57600080fd5b60006121ca85828601611fa8565b92505060206121db85828601611fbd565b9150509250929050565b600080604083850312156121f857600080fd5b600061220685828601611fa8565b925050602061221785828601612050565b9150509250929050565b60008060006060848603121561223657600080fd5b600061224486828701611fa8565b935050602061225586828701612050565b925050604084013567ffffffffffffffff81111561227257600080fd5b61227e86828701612026565b9150509250925092565b6000806000806080858703121561229e57600080fd5b60006122ac87828801611fa8565b94505060206122bd87828801612050565b935050604085013567ffffffffffffffff8111156122da57600080fd5b6122e687828801612026565b92505060606122f787828801611fbd565b91505092959194509250565b6000806040838503121561231657600080fd5b600061232485828601611fa8565b925050602061233585828601612065565b9150509250929050565b60006020828403121561235157600080fd5b600061235f84828501611fd2565b91505092915050565b60006020828403121561237a57600080fd5b600061238884828501611fe7565b91505092915050565b6000602082840312156123a357600080fd5b60006123b184828501612050565b91505092915050565b6123c381612601565b82525050565b6123d281612613565b82525050565b60006123e3826125c9565b6123ed81856125df565b93506123fd818560208601612698565b6124068161278c565b840191505092915050565b600061241c826125d4565b61242681856125f0565b9350612436818560208601612698565b61243f8161278c565b840191505092915050565b6124538161266b565b82525050565b61246281612675565b82525050565b600060208201905061247d60008301846123ba565b92915050565b600060808201905061249860008301876123ba565b6124a560208301866123ba565b6124b2604083018561244a565b81810360608301526124c481846123d8565b905095945050505050565b60006020820190506124e460008301846123c9565b92915050565b600060208201905081810360008301526125048184612411565b905092915050565b6000602082019050612521600083018461244a565b92915050565b600060208201905061253c6000830184612459565b92915050565b600061254c61255d565b905061255882826126fd565b919050565b6000604051905090565b600067ffffffffffffffff8211156125825761258161275d565b5b61258b8261278c565b9050602081019050919050565b600067ffffffffffffffff8211156125b3576125b261275d565b5b6125bc8261278c565b9050602081019050919050565b600081519050919050565b600081519050919050565b600082825260208201905092915050565b600082825260208201905092915050565b600061260c8261264b565b9050919050565b60008115159050919050565b60007fffffffff0000000000000000000000000000000000000000000000000000000082169050919050565b600073ffffffffffffffffffffffffffffffffffffffff82169050919050565b6000819050919050565b600067ffffffffffffffff82169050919050565b82818337600083830152505050565b60005b838110156126b657808201518184015260208101905061269b565b838111156126c5576000848401525b50505050565b600060028204905060018216806126e357607f821691505b602082108114156126f7576126f661272e565b5b50919050565b6127068261278c565b810181811067ffffffffffffffff821117156127255761272461275d565b5b80604052505050565b7f4e487b7100000000000000000000000000000000000000000000000000000000600052602260045260246000fd5b7f4e487b7100000000000000000000000000000000000000000000000000000000600052604160045260246000fd5b6000601f19601f8301169050919050565b6127a681612601565b81146127b157600080fd5b50565b6127bd81612613565b81146127c857600080fd5b50565b6127d48161261f565b81146127df57600080fd5b50565b6127eb8161266b565b81146127f657600080fd5b50565b61280281612675565b811461280d57600080fd5b5056fea26469706673582212202fe202b204f99e5dc9247961b1d2ea294c5c8641c2f9e6f635da95870a3d126d64736f6c63430008040033",
  "linkReferences": {},
  "deployedLinkReferences": {}
}