{
  "_format": "hh-sol-artifact-1",
  "contractName": "OwnedUpgradeabilityStorage",
  "sourceName": "contracts/registry/proxy/OwnedUpgradeabilityStorage.sol",
  "abi": [
    {
      "inputs": [],
      "name": "upgradeabilityOwner",
      "outputs": [
        {
          "internalType": "address",
          "name": "",
          "type": "address"
        }
      ],
      "stateMutability": "view",
      "type": "function"
    }
  ],
  "bytecode": "0x6080604052348015600f57600080fd5b5060948061001e6000396000f3fe6080604052348015600f57600080fd5b506004361060285760003560e01c80636fde820214602d575b600080fd5b6033604f565b604080516001600160a01b039092168252519081900360200190f35b6001546001600160a01b03169056fea26469706673582212202ce8c78b49997a21661f5564688d617028985861581ab978814f9acb712f662064736f6c63430007050033",
  "linkReferences": {},
  "deployedLinkReferences": {}
}