{
  "_format": "hh-sol-artifact-1",
  "contractName": "TokenRecipient",
  "sourceName": "contracts/registry/TokenRecipient.sol",
  "abi": [
    {
      "anonymous": false,
      "inputs": [
        {
          "indexed": true,
          "internalType": "address",
          "name": "sender",
          "type": "address"
        },
        {
          "indexed": false,
          "internalType": "uint256",
          "name": "amount",
          "type": "uint256"
        }
      ],
      "name": "ReceivedEther",
      "type": "event"
    },
    {
      "anonymous": false,
      "inputs": [
        {
          "indexed": true,
          "internalType": "address",
          "name": "from",
          "type": "address"
        },
        {
          "indexed": false,
          "internalType": "uint256",
          "name": "value",
          "type": "uint256"
        },
        {
          "indexed": true,
          "internalType": "address",
          "name": "token",
          "type": "address"
        },
        {
          "indexed": false,
          "internalType": "bytes",
          "name": "extraData",
          "type": "bytes"
        }
      ],
      "name": "ReceivedTokens",
      "type": "event"
    },
    {
      "stateMutability": "payable",
      "type": "fallback"
    },
    {
      "inputs": [
        {
          "internalType": "address",
          "name": "from",
          "type": "address"
        },
        {
          "internalType": "uint256",
          "name": "value",
          "type": "uint256"
        },
        {
          "internalType": "address",
          "name": "token",
          "type": "address"
        },
        {
          "internalType": "bytes",
          "name": "extraData",
          "type": "bytes"
        }
      ],
      "name": "receiveApproval",
      "outputs": [],
      "stateMutability": "nonpayable",
      "type": "function"
    }
  ],
  "bytecode": "0x608060405234801561001057600080fd5b506102f2806100206000396000f3fe60806040526004361061001e5760003560e01c80638f4ffcb114610056575b60408051348152905133917fa419615bc8fda4c87663805ee2a3597a6d71c1d476911d9892f340d965bc7bf1919081900360200190a2005b34801561006257600080fd5b506101286004803603608081101561007957600080fd5b6001600160a01b0382358116926020810135926040820135909216918101906080810160608201356401000000008111156100b357600080fd5b8201836020820111156100c557600080fd5b803590602001918460018302840111640100000000831117156100e757600080fd5b91908080601f01602080910402602001604051908101604052809392919081815260200183838082843760009201919091525092955061012a945050505050565b005b604080516323b872dd60e01b81526001600160a01b03868116600483015230602483015260448201869052915184928316916323b872dd9160648083019260209291908290030181600087803b15801561018357600080fd5b505af1158015610197573d6000803e3d6000fd5b505050506040513d60208110156101ad57600080fd5b5051610200576040805162461bcd60e51b815260206004820152601b60248201527f455243323020746f6b656e207472616e73666572206661696c65640000000000604482015290519081900360640190fd5b826001600160a01b0316856001600160a01b03167fd65b48fd35864b3528d38e44760be5553248f89bf3ff6b06cca57817cc2650bf86856040518083815260200180602001828103825283818151815260200191508051906020019080838360005b8381101561027a578181015183820152602001610262565b50505050905090810190601f1680156102a75780820380516001836020036101000a031916815260200191505b50935050505060405180910390a3505050505056fea2646970667358221220a3f404c28f356fb27f6f9099d4b9dd9d909b859d27be835645c3a18a0367905664736f6c63430007050033",
  "linkReferences": {},
  "deployedLinkReferences": {}
}